{
  "contractName": "DEX",
  "abi": [
    {
      "inputs": [
        {
          "internalType": "uint16",
          "name": "_feePercent",
          "type": "uint16"
        },
        {
          "internalType": "uint16",
          "name": "_royaltyFeePercent",
          "type": "uint16"
        }
      ],
      "stateMutability": "nonpayable",
      "type": "constructor"
    },
    {
      "anonymous": false,
      "inputs": [
        {
          "indexed": true,
          "internalType": "contract IERC721",
          "name": "tokenContract",
          "type": "address"
        },
        {
          "indexed": false,
          "internalType": "uint256",
          "name": "tokenId",
          "type": "uint256"
        },
        {
          "indexed": true,
          "internalType": "bytes32",
          "name": "orderId",
          "type": "bytes32"
        },
        {
          "indexed": false,
          "internalType": "address",
          "name": "bidder",
          "type": "address"
        },
        {
          "indexed": false,
          "internalType": "uint256",
          "name": "bidPrice",
          "type": "uint256"
        }
      ],
      "name": "Bid",
      "type": "event"
    },
    {
      "anonymous": false,
      "inputs": [
        {
          "indexed": true,
          "internalType": "contract IERC721",
          "name": "tokenContract",
          "type": "address"
        },
        {
          "indexed": false,
          "internalType": "uint256",
          "name": "tokenId",
          "type": "uint256"
        },
        {
          "indexed": true,
          "internalType": "bytes32",
          "name": "orderId",
          "type": "bytes32"
        },
        {
          "indexed": false,
          "internalType": "address",
          "name": "seller",
          "type": "address"
        }
      ],
      "name": "CancelOrder",
      "type": "event"
    },
    {
      "anonymous": false,
      "inputs": [
        {
          "indexed": true,
          "internalType": "contract IERC721",
          "name": "tokenContract",
          "type": "address"
        },
        {
          "indexed": false,
          "internalType": "uint256",
          "name": "tokenId",
          "type": "uint256"
        },
        {
          "indexed": true,
          "internalType": "bytes32",
          "name": "orderId",
          "type": "bytes32"
        },
        {
          "indexed": false,
          "internalType": "address",
          "name": "seller",
          "type": "address"
        },
        {
          "indexed": false,
          "internalType": "address",
          "name": "taker",
          "type": "address"
        },
        {
          "indexed": false,
          "internalType": "uint256",
          "name": "price",
          "type": "uint256"
        }
      ],
      "name": "Claim",
      "type": "event"
    },
    {
      "anonymous": false,
      "inputs": [
        {
          "indexed": true,
          "internalType": "contract IERC721",
          "name": "tokenContract",
          "type": "address"
        },
        {
          "indexed": false,
          "internalType": "uint256",
          "name": "tokenId",
          "type": "uint256"
        },
        {
          "indexed": true,
          "internalType": "bytes32",
          "name": "orderId",
          "type": "bytes32"
        },
        {
          "indexed": false,
          "internalType": "address",
          "name": "seller",
          "type": "address"
        }
      ],
      "name": "MakeOrder",
      "type": "event"
    },
    {
      "anonymous": false,
      "inputs": [
        {
          "indexed": false,
          "internalType": "address",
          "name": "sender",
          "type": "address"
        },
        {
          "indexed": false,
          "internalType": "uint256",
          "name": "value",
          "type": "uint256"
        }
      ],
      "name": "Received",
      "type": "event"
    },
    {
      "anonymous": false,
      "inputs": [
        {
          "indexed": false,
          "internalType": "address",
          "name": "_operator",
          "type": "address"
        },
        {
          "indexed": false,
          "internalType": "address",
          "name": "_from",
          "type": "address"
        },
        {
          "indexed": false,
          "internalType": "uint256",
          "name": "_tokenId",
          "type": "uint256"
        },
        {
          "indexed": false,
          "internalType": "bytes",
          "name": "_data",
          "type": "bytes"
        }
      ],
      "name": "TestEvent",
      "type": "event"
    },
    {
      "inputs": [],
      "name": "admin",
      "outputs": [
        {
          "internalType": "address",
          "name": "",
          "type": "address"
        }
      ],
      "stateMutability": "view",
      "type": "function",
      "constant": true
    },
    {
      "inputs": [
        {
          "internalType": "address",
          "name": "_newAdmin",
          "type": "address"
        }
      ],
      "name": "changeAdmin",
      "outputs": [],
      "stateMutability": "nonpayable",
      "type": "function"
    },
    {
      "inputs": [],
      "name": "feeAddress",
      "outputs": [
        {
          "internalType": "address",
          "name": "",
          "type": "address"
        }
      ],
      "stateMutability": "view",
      "type": "function",
      "constant": true
    },
    {
      "inputs": [],
      "name": "feePercent",
      "outputs": [
        {
          "internalType": "uint16",
          "name": "",
          "type": "uint16"
        }
      ],
      "stateMutability": "view",
      "type": "function",
      "constant": true
    },
    {
      "inputs": [
        {
          "internalType": "address",
          "name": "",
          "type": "address"
        },
        {
          "internalType": "uint256",
          "name": "",
          "type": "uint256"
        }
      ],
      "name": "orderIdBySeller",
      "outputs": [
        {
          "internalType": "bytes32",
          "name": "",
          "type": "bytes32"
        }
      ],
      "stateMutability": "view",
      "type": "function",
      "constant": true
    },
    {
      "inputs": [
        {
          "internalType": "contract IERC721",
          "name": "",
          "type": "address"
        },
        {
          "internalType": "uint256",
          "name": "",
          "type": "uint256"
        }
      ],
      "name": "orderIdByToken",
      "outputs": [
        {
          "internalType": "bytes32",
          "name": "",
          "type": "bytes32"
        }
      ],
      "stateMutability": "view",
      "type": "function",
      "constant": true
    },
    {
      "inputs": [
        {
          "internalType": "bytes32",
          "name": "",
          "type": "bytes32"
        }
      ],
      "name": "orderInfo",
      "outputs": [
        {
          "internalType": "enum DEX_Internal.OrderType",
          "name": "orderType",
          "type": "uint8"
        },
        {
          "internalType": "enum DEX_Internal.OrderStatus",
          "name": "status",
          "type": "uint8"
        },
        {
          "internalType": "address",
          "name": "seller",
          "type": "address"
        },
        {
          "internalType": "contract IERC721",
          "name": "tokenContract",
          "type": "address"
        },
        {
          "internalType": "uint256",
          "name": "tokenId",
          "type": "uint256"
        },
        {
          "internalType": "uint256",
          "name": "startPrice",
          "type": "uint256"
        },
        {
          "internalType": "uint256",
          "name": "fixedPrice",
          "type": "uint256"
        },
        {
          "internalType": "uint256",
          "name": "startTime",
          "type": "uint256"
        },
        {
          "internalType": "uint256",
          "name": "endTime",
          "type": "uint256"
        },
        {
          "internalType": "uint256",
          "name": "lastBidPrice",
          "type": "uint256"
        },
        {
          "internalType": "address",
          "name": "lastBidder",
          "type": "address"
        }
      ],
      "stateMutability": "view",
      "type": "function",
      "constant": true
    },
    {
      "inputs": [],
      "name": "royaltyFeePercent",
      "outputs": [
        {
          "internalType": "uint16",
          "name": "",
          "type": "uint16"
        }
      ],
      "stateMutability": "view",
      "type": "function",
      "constant": true
    },
    {
      "inputs": [
        {
          "internalType": "address",
          "name": "_feeAddress",
          "type": "address"
        }
      ],
      "name": "setFeeAddress",
      "outputs": [],
      "stateMutability": "nonpayable",
      "type": "function"
    },
    {
      "inputs": [
        {
          "internalType": "uint16",
          "name": "_percent",
          "type": "uint16"
        }
      ],
      "name": "updateFeePercent",
      "outputs": [],
      "stateMutability": "nonpayable",
      "type": "function"
    },
    {
      "stateMutability": "payable",
      "type": "receive",
      "payable": true
    },
    {
      "inputs": [
        {
          "internalType": "contract IERC721",
          "name": "_token",
          "type": "address"
        },
        {
          "internalType": "uint256",
          "name": "_id",
          "type": "uint256"
        },
        {
          "internalType": "uint256",
          "name": "_startPrice",
          "type": "uint256"
        },
        {
          "internalType": "uint256",
          "name": "duration",
          "type": "uint256"
        }
      ],
      "name": "makeAuctionOrder",
      "outputs": [],
      "stateMutability": "nonpayable",
      "type": "function"
    },
    {
      "inputs": [
        {
          "internalType": "contract IERC721",
          "name": "_token",
          "type": "address"
        },
        {
          "internalType": "uint256",
          "name": "_id",
          "type": "uint256"
        },
        {
          "internalType": "uint256",
          "name": "_fixedPrice",
          "type": "uint256"
        },
        {
          "internalType": "uint256",
          "name": "duration",
          "type": "uint256"
        }
      ],
      "name": "makeFixedPriceOrder",
      "outputs": [],
      "stateMutability": "nonpayable",
      "type": "function"
    },
    {
      "inputs": [
        {
          "internalType": "contract IERC721",
          "name": "_token",
          "type": "address"
        },
        {
          "internalType": "uint256",
          "name": "_id",
          "type": "uint256"
        },
        {
          "internalType": "uint256",
          "name": "_startPrice",
          "type": "uint256"
        },
        {
          "internalType": "uint256",
          "name": "_fixedPrice",
          "type": "uint256"
        },
        {
          "internalType": "uint256",
          "name": "duration",
          "type": "uint256"
        }
      ],
      "name": "makeMixedOrder",
      "outputs": [],
      "stateMutability": "nonpayable",
      "type": "function"
    },
    {
      "inputs": [
        {
          "internalType": "bytes32",
          "name": "_order",
          "type": "bytes32"
        }
      ],
      "name": "getCurrentPrice",
      "outputs": [
        {
          "internalType": "uint256",
          "name": "",
          "type": "uint256"
        }
      ],
      "stateMutability": "view",
      "type": "function",
      "constant": true
    },
    {
      "inputs": [
        {
          "internalType": "address",
          "name": "_seller",
          "type": "address"
        }
      ],
      "name": "sellerTotalOrder",
      "outputs": [
        {
          "internalType": "uint256",
          "name": "",
          "type": "uint256"
        }
      ],
      "stateMutability": "view",
      "type": "function",
      "constant": true
    },
    {
      "inputs": [
        {
          "internalType": "bytes32",
          "name": "_order",
          "type": "bytes32"
        }
      ],
      "name": "bid",
      "outputs": [],
      "stateMutability": "payable",
      "type": "function",
      "payable": true
    },
    {
      "inputs": [
        {
          "internalType": "bytes32",
          "name": "_order",
          "type": "bytes32"
        }
      ],
      "name": "buyItNow",
      "outputs": [],
      "stateMutability": "payable",
      "type": "function",
      "payable": true
    },
    {
      "inputs": [
        {
          "internalType": "bytes32",
          "name": "_order",
          "type": "bytes32"
        }
      ],
      "name": "claim",
      "outputs": [],
      "stateMutability": "nonpayable",
      "type": "function"
    },
    {
      "inputs": [
        {
          "internalType": "bytes32",
          "name": "_order",
          "type": "bytes32"
        }
      ],
      "name": "cancelOrder",
      "outputs": [],
      "stateMutability": "nonpayable",
      "type": "function"
    }
  ],
  "bytecode": "0x60806040523480156200001157600080fd5b50604051620046a4380380620046a483398181016040528101906200003791906200018f565b81816127108261ffff16111562000085576040517f08c379a00000000000000000000000000000000000000000000000000000000081526004016200007c9062000237565b60405180910390fd5b33600360006101000a81548173ffffffffffffffffffffffffffffffffffffffff021916908373ffffffffffffffffffffffffffffffffffffffff16021790555033600460006101000a81548173ffffffffffffffffffffffffffffffffffffffff021916908373ffffffffffffffffffffffffffffffffffffffff16021790555081600460146101000a81548161ffff021916908361ffff16021790555080600460166101000a81548161ffff021916908361ffff1602179055505050505062000259565b600080fd5b600061ffff82169050919050565b620001698162000150565b81146200017557600080fd5b50565b60008151905062000189816200015e565b92915050565b60008060408385031215620001a957620001a86200014b565b5b6000620001b98582860162000178565b9250506020620001cc8582860162000178565b9150509250929050565b600082825260208201905092915050565b7f696e7075742076616c7565206973206d6f7265207468616e2031303025000000600082015250565b60006200021f601d83620001d6565b91506200022c82620001e7565b602082019050919050565b60006020820190508181036000830152620002528162000210565b9050919050565b61443b80620002696000396000f3fe6080604052600436106101185760003560e01c80638ba39adb116100a0578063bd66528a11610064578063bd66528a146103f3578063c0a8f1b61461041c578063c124e6e014610445578063dca615ed1461046e578063f851a4401461049957610158565b80638ba39adb1461032c5780638f28397014610348578063957bb1e014610371578063a04a86bd1461038d578063a71dee95146103b657610158565b8063238e203f116100e7578063238e203f1461023d57806341275358146102845780637489ec23146102af5780637fd6f15c146102d85780638705fcd41461030357610158565b806308745c981461015d57806311d36ba01461019a578063161e444e146101d75780631c14796c1461021457610158565b36610158577f88a5966d370b9919b20f3e2c13ff65706f196a4e32cc2c12bf57088f88525874333460405161014e92919061310b565b60405180910390a1005b600080fd5b34801561016957600080fd5b50610184600480360381019061017f9190613191565b6104c4565b60405161019191906131ea565b60405180910390f35b3480156101a657600080fd5b506101c160048036038101906101bc9190613205565b6104f5565b6040516101ce9190613232565b60405180910390f35b3480156101e357600080fd5b506101fe60048036038101906101f99190613279565b610541565b60405161020b9190613232565b60405180910390f35b34801561022057600080fd5b5061023b600480360381019061023691906132e4565b610553565b005b34801561024957600080fd5b50610264600480360381019061025f9190613279565b61057a565b60405161027b9b9a99989796959493929190613469565b60405180910390f35b34801561029057600080fd5b5061029961064e565b6040516102a69190613514565b60405180910390f35b3480156102bb57600080fd5b506102d660048036038101906102d19190613279565b610674565b005b3480156102e457600080fd5b506102ed610680565b6040516102fa919061354c565b60405180910390f35b34801561030f57600080fd5b5061032a60048036038101906103259190613205565b610694565b005b61034660048036038101906103419190613279565b610768565b005b34801561035457600080fd5b5061036f600480360381019061036a9190613205565b610774565b005b61038b60048036038101906103869190613279565b610848565b005b34801561039957600080fd5b506103b460048036038101906103af9190613593565b610854565b005b3480156103c257600080fd5b506103dd60048036038101906103d891906135c0565b61094d565b6040516103ea91906131ea565b60405180910390f35b3480156103ff57600080fd5b5061041a60048036038101906104159190613279565b610972565b005b34801561042857600080fd5b50610443600480360381019061043e91906132e4565b61097e565b005b34801561045157600080fd5b5061046c60048036038101906104679190613600565b6109a5565b005b34801561047a57600080fd5b506104836109cc565b604051610490919061354c565b60405180910390f35b3480156104a557600080fd5b506104ae6109e0565b6040516104bb9190613514565b60405180910390f35b600160205281600052604060002081815481106104e057600080fd5b90600052602060002001600091509150505481565b6000600160008373ffffffffffffffffffffffffffffffffffffffff1673ffffffffffffffffffffffffffffffffffffffff168152602001908152602001600020805490509050919050565b600061054c82610a06565b9050919050565b6000814261056191906136aa565b90506105736001868660008786610d39565b5050505050565b60026020528060005260406000206000915090508060000160009054906101000a900460ff16908060000160019054906101000a900460ff16908060000160029054906101000a900473ffffffffffffffffffffffffffffffffffffffff16908060010160009054906101000a900473ffffffffffffffffffffffffffffffffffffffff16908060020154908060030154908060040154908060050154908060060154908060070154908060080160009054906101000a900473ffffffffffffffffffffffffffffffffffffffff1690508b565b600460009054906101000a900473ffffffffffffffffffffffffffffffffffffffff1681565b61067d816110a9565b50565b600460149054906101000a900461ffff1681565b600360009054906101000a900473ffffffffffffffffffffffffffffffffffffffff1673ffffffffffffffffffffffffffffffffffffffff163373ffffffffffffffffffffffffffffffffffffffff1614610724576040517f08c379a000000000000000000000000000000000000000000000000000000000815260040161071b9061375d565b60405180910390fd5b80600460006101000a81548173ffffffffffffffffffffffffffffffffffffffff021916908373ffffffffffffffffffffffffffffffffffffffff16021790555050565b6107718161117c565b50565b600360009054906101000a900473ffffffffffffffffffffffffffffffffffffffff1673ffffffffffffffffffffffffffffffffffffffff163373ffffffffffffffffffffffffffffffffffffffff1614610804576040517f08c379a00000000000000000000000000000000000000000000000000000000081526004016107fb9061375d565b60405180910390fd5b80600360006101000a81548173ffffffffffffffffffffffffffffffffffffffff021916908373ffffffffffffffffffffffffffffffffffffffff16021790555050565b61085181611501565b50565b600360009054906101000a900473ffffffffffffffffffffffffffffffffffffffff1673ffffffffffffffffffffffffffffffffffffffff163373ffffffffffffffffffffffffffffffffffffffff16146108e4576040517f08c379a00000000000000000000000000000000000000000000000000000000081526004016108db9061375d565b60405180910390fd5b6127108161ffff16111561092d576040517f08c379a0000000000000000000000000000000000000000000000000000000008152600401610924906137c9565b60405180910390fd5b80600460146101000a81548161ffff021916908361ffff16021790555050565b6000602052816000526040600020602052806000526040600020600091509150505481565b61097b81611823565b50565b6000814261098c91906136aa565b905061099e6000868686600086610d39565b5050505050565b600081426109b391906136aa565b90506109c460028787878786610d39565b505050505050565b600460169054906101000a900461ffff1681565b600360009054906101000a900473ffffffffffffffffffffffffffffffffffffffff1681565b6000806003811115610a1b57610a1a61334b565b5b610a2483611bc3565b6003811115610a3657610a3561334b565b5b14610a76576040517f08c379a0000000000000000000000000000000000000000000000000000000008152600401610a6d90613835565b60405180910390fd5b600060026000848152602001908152602001600020604051806101600160405290816000820160009054906101000a900460ff166002811115610abc57610abb61334b565b5b6002811115610ace57610acd61334b565b5b81526020016000820160019054906101000a900460ff166003811115610af757610af661334b565b5b6003811115610b0957610b0861334b565b5b81526020016000820160029054906101000a900473ffffffffffffffffffffffffffffffffffffffff1673ffffffffffffffffffffffffffffffffffffffff1673ffffffffffffffffffffffffffffffffffffffff1681526020016001820160009054906101000a900473ffffffffffffffffffffffffffffffffffffffff1673ffffffffffffffffffffffffffffffffffffffff1673ffffffffffffffffffffffffffffffffffffffff1681526020016002820154815260200160038201548152602001600482015481526020016005820154815260200160068201548152602001600782015481526020016008820160009054906101000a900473ffffffffffffffffffffffffffffffffffffffff1673ffffffffffffffffffffffffffffffffffffffff1673ffffffffffffffffffffffffffffffffffffffff168152505090506000816101200151905060016002811115610c6b57610c6a61334b565b5b82600001516002811115610c8257610c8161334b565b5b1415610c96578160c0015192505050610d34565b60006002811115610caa57610ca961334b565b5b82600001516002811115610cc157610cc061334b565b5b1415610ce45760008114610cd55780610cdb565b8160a001515b92505050610d34565b600280811115610cf757610cf661334b565b5b82600001516002811115610d0e57610d0d61334b565b5b1415610d315760008114610d225780610d28565b8160a001515b92505050610d34565b50505b919050565b610d468585858585611e8d565b506000610d548686336121aa565b9050604051806101600160405280886002811115610d7557610d7461334b565b5b815260200160006003811115610d8e57610d8d61334b565b5b81526020013373ffffffffffffffffffffffffffffffffffffffff1681526020018773ffffffffffffffffffffffffffffffffffffffff16815260200186815260200185815260200184815260200142815260200183815260200160008152602001600073ffffffffffffffffffffffffffffffffffffffff168152506002600083815260200190815260200160002060008201518160000160006101000a81548160ff02191690836002811115610e4957610e4861334b565b5b021790555060208201518160000160016101000a81548160ff02191690836003811115610e7957610e7861334b565b5b021790555060408201518160000160026101000a81548173ffffffffffffffffffffffffffffffffffffffff021916908373ffffffffffffffffffffffffffffffffffffffff16021790555060608201518160010160006101000a81548173ffffffffffffffffffffffffffffffffffffffff021916908373ffffffffffffffffffffffffffffffffffffffff1602179055506080820151816002015560a0820151816003015560c0820151816004015560e08201518160050155610100820151816006015561012082015181600701556101408201518160080160006101000a81548173ffffffffffffffffffffffffffffffffffffffff021916908373ffffffffffffffffffffffffffffffffffffffff160217905550905050806000808873ffffffffffffffffffffffffffffffffffffffff1673ffffffffffffffffffffffffffffffffffffffff168152602001908152602001600020600087815260200190815260200160002081905550600160003373ffffffffffffffffffffffffffffffffffffffff1673ffffffffffffffffffffffffffffffffffffffff168152602001908152602001600020819080600181540180825580915050600190039060005260206000200160009091909190915055808673ffffffffffffffffffffffffffffffffffffffff167f165b17602125a20b222f9736f06d776e39507d7dc60ddef32ccc23ea2f1b50e58733604051611098929190613855565b60405180910390a350505050505050565b6110b2816121e2565b6110bb57600080fd5b600060026000838152602001908152602001600020905060028160000160016101000a81548160ff021916908360038111156110fa576110f961334b565b5b0217905550818160010160009054906101000a900473ffffffffffffffffffffffffffffffffffffffff1673ffffffffffffffffffffffffffffffffffffffff167f856ac238bc6f4bb0c966003f34f148bf0ef3b60f266e451474de23ff78196c8b836002015433604051611170929190613855565b60405180910390a35050565b61118581612355565b61118e57600080fd5b600060026000838152602001908152602001600020905060018160000160016101000a81548160ff021916908360038111156111cd576111cc61334b565b5b021790555061139d81604051806101600160405290816000820160009054906101000a900460ff1660028111156112075761120661334b565b5b60028111156112195761121861334b565b5b81526020016000820160019054906101000a900460ff1660038111156112425761124161334b565b5b60038111156112545761125361334b565b5b81526020016000820160029054906101000a900473ffffffffffffffffffffffffffffffffffffffff1673ffffffffffffffffffffffffffffffffffffffff1673ffffffffffffffffffffffffffffffffffffffff1681526020016001820160009054906101000a900473ffffffffffffffffffffffffffffffffffffffff1673ffffffffffffffffffffffffffffffffffffffff1673ffffffffffffffffffffffffffffffffffffffff1681526020016002820154815260200160038201548152602001600482015481526020016005820154815260200160068201548152602001600782015481526020016008820160009054906101000a900473ffffffffffffffffffffffffffffffffffffffff1673ffffffffffffffffffffffffffffffffffffffff1673ffffffffffffffffffffffffffffffffffffffff16815250506000612654565b8060010160009054906101000a900473ffffffffffffffffffffffffffffffffffffffff1673ffffffffffffffffffffffffffffffffffffffff166342842e0e8260000160029054906101000a900473ffffffffffffffffffffffffffffffffffffffff163384600201546040518463ffffffff1660e01b81526004016114269392919061387e565b600060405180830381600087803b15801561144057600080fd5b505af1158015611454573d6000803e3d6000fd5b50505050818160010160009054906101000a900473ffffffffffffffffffffffffffffffffffffffff1673ffffffffffffffffffffffffffffffffffffffff167f37a6d1163573be2522695f96cbee3037bf297187c0378e8903ac1ae0192f699f83600201548460000160029054906101000a900473ffffffffffffffffffffffffffffffffffffffff163386600401546040516114f594939291906138b5565b60405180910390a35050565b61150a81612850565b61151357600080fd5b600060026000838152602001908152602001600020604051806101600160405290816000820160009054906101000a900460ff1660028111156115595761155861334b565b5b600281111561156b5761156a61334b565b5b81526020016000820160019054906101000a900460ff1660038111156115945761159361334b565b5b60038111156115a6576115a561334b565b5b81526020016000820160029054906101000a900473ffffffffffffffffffffffffffffffffffffffff1673ffffffffffffffffffffffffffffffffffffffff1673ffffffffffffffffffffffffffffffffffffffff1681526020016001820160009054906101000a900473ffffffffffffffffffffffffffffffffffffffff1673ffffffffffffffffffffffffffffffffffffffff1673ffffffffffffffffffffffffffffffffffffffff1681526020016002820154815260200160038201548152602001600482015481526020016005820154815260200160068201548152602001600782015481526020016008820160009054906101000a900473ffffffffffffffffffffffffffffffffffffffff1673ffffffffffffffffffffffffffffffffffffffff1673ffffffffffffffffffffffffffffffffffffffff1681525050905061012c8161010001516116fd91906138fa565b4211156117215761012c816101000181815161171991906136aa565b915081815250505b6000816101200151146117805780610140015173ffffffffffffffffffffffffffffffffffffffff166108fc8261012001519081150290604051600060405180830381858888f1935050505015801561177e573d6000803e3d6000fd5b505b3381610140019073ffffffffffffffffffffffffffffffffffffffff16908173ffffffffffffffffffffffffffffffffffffffff1681525050348161012001818152505081816060015173ffffffffffffffffffffffffffffffffffffffff167f7f99059564a74b5d2e3fbf994dec403ab0af5688c9a4e86ca2a933688eaf223b836080015133346040516118179392919061392e565b60405180910390a35050565b61182c81612c47565b61183557600080fd5b6000600260008381526020019081526020016000209050611a1781604051806101600160405290816000820160009054906101000a900460ff1660028111156118815761188061334b565b5b60028111156118935761189261334b565b5b81526020016000820160019054906101000a900460ff1660038111156118bc576118bb61334b565b5b60038111156118ce576118cd61334b565b5b81526020016000820160029054906101000a900473ffffffffffffffffffffffffffffffffffffffff1673ffffffffffffffffffffffffffffffffffffffff1673ffffffffffffffffffffffffffffffffffffffff1681526020016001820160009054906101000a900473ffffffffffffffffffffffffffffffffffffffff1673ffffffffffffffffffffffffffffffffffffffff1673ffffffffffffffffffffffffffffffffffffffff1681526020016002820154815260200160038201548152602001600482015481526020016005820154815260200160068201548152602001600782015481526020016008820160009054906101000a900473ffffffffffffffffffffffffffffffffffffffff1673ffffffffffffffffffffffffffffffffffffffff1673ffffffffffffffffffffffffffffffffffffffff16815250506001612654565b8060010160009054906101000a900473ffffffffffffffffffffffffffffffffffffffff1673ffffffffffffffffffffffffffffffffffffffff166342842e0e8260000160029054906101000a900473ffffffffffffffffffffffffffffffffffffffff168360080160009054906101000a900473ffffffffffffffffffffffffffffffffffffffff1684600201546040518463ffffffff1660e01b8152600401611ac49392919061387e565b600060405180830381600087803b158015611ade57600080fd5b505af1158015611af2573d6000803e3d6000fd5b50505050818160010160009054906101000a900473ffffffffffffffffffffffffffffffffffffffff1673ffffffffffffffffffffffffffffffffffffffff167f37a6d1163573be2522695f96cbee3037bf297187c0378e8903ac1ae0192f699f83600201548460000160029054906101000a900473ffffffffffffffffffffffffffffffffffffffff168560080160009054906101000a900473ffffffffffffffffffffffffffffffffffffffff168660070154604051611bb794939291906138b5565b60405180910390a35050565b60008073ffffffffffffffffffffffffffffffffffffffff166002600084815260200190815260200160002060000160029054906101000a900473ffffffffffffffffffffffffffffffffffffffff1673ffffffffffffffffffffffffffffffffffffffff161415611c6a576040517f08c379a0000000000000000000000000000000000000000000000000000000008152600401611c61906139b1565b60405180910390fd5b600060026000848152602001908152602001600020604051806101600160405290816000820160009054906101000a900460ff166002811115611cb057611caf61334b565b5b6002811115611cc257611cc161334b565b5b81526020016000820160019054906101000a900460ff166003811115611ceb57611cea61334b565b5b6003811115611cfd57611cfc61334b565b5b81526020016000820160029054906101000a900473ffffffffffffffffffffffffffffffffffffffff1673ffffffffffffffffffffffffffffffffffffffff1673ffffffffffffffffffffffffffffffffffffffff1681526020016001820160009054906101000a900473ffffffffffffffffffffffffffffffffffffffff1673ffffffffffffffffffffffffffffffffffffffff1673ffffffffffffffffffffffffffffffffffffffff1681526020016002820154815260200160038201548152602001600482015481526020016005820154815260200160068201548152602001600782015481526020016008820160009054906101000a900473ffffffffffffffffffffffffffffffffffffffff1673ffffffffffffffffffffffffffffffffffffffff1673ffffffffffffffffffffffffffffffffffffffff16815250509050428161010001511015611e8057600381602001906003811115611e6757611e6661334b565b5b90816003811115611e7b57611e7a61334b565b5b815250505b8060200151915050919050565b6000428211611ed1576040517f08c379a0000000000000000000000000000000000000000000000000000000008152600401611ec890613a1d565b60405180910390fd5b3073ffffffffffffffffffffffffffffffffffffffff168673ffffffffffffffffffffffffffffffffffffffff1663081812fc876040518263ffffffff1660e01b8152600401611f219190613232565b602060405180830381865afa158015611f3e573d6000803e3d6000fd5b505050506040513d601f19601f82011682018060405250810190611f629190613a52565b73ffffffffffffffffffffffffffffffffffffffff16148061207c5750600115158673ffffffffffffffffffffffffffffffffffffffff1663e985e9c58873ffffffffffffffffffffffffffffffffffffffff16636352211e896040518263ffffffff1660e01b8152600401611fd89190613232565b602060405180830381865afa158015611ff5573d6000803e3d6000fd5b505050506040513d601f19601f820116820180604052508101906120199190613a52565b306040518363ffffffff1660e01b8152600401612037929190613a7f565b602060405180830381865afa158015612054573d6000803e3d6000fd5b505050506040513d601f19601f820116820180604052508101906120789190613ae0565b1515145b6120bb576040517f08c379a00000000000000000000000000000000000000000000000000000000081526004016120b290613ba5565b60405180910390fd5b6000801b6000808873ffffffffffffffffffffffffffffffffffffffff1673ffffffffffffffffffffffffffffffffffffffff1681526020019081526020016000206000878152602001908152602001600020541461214f576040517f08c379a000000000000000000000000000000000000000000000000000000000815260040161214690613c37565b60405180910390fd5b600084118061215e5750600083115b61219d576040517f08c379a000000000000000000000000000000000000000000000000000000000815260040161219490613ca3565b60405180910390fd5b6001905095945050505050565b6000428484846040516020016121c39493929190613d43565b6040516020818303038152906040528051906020012090509392505050565b6000806002600084815260200190815260200160002090506000600381111561220e5761220d61334b565b5b8160000160019054906101000a900460ff1660038111156122325761223161334b565b5b14612272576040517f08c379a000000000000000000000000000000000000000000000000000000000815260040161226990613ddd565b60405180910390fd5b3373ffffffffffffffffffffffffffffffffffffffff168160000160029054906101000a900473ffffffffffffffffffffffffffffffffffffffff1673ffffffffffffffffffffffffffffffffffffffff1614612304576040517f08c379a00000000000000000000000000000000000000000000000000000000081526004016122fb90613e49565b60405180910390fd5b600081600701541461234b576040517f08c379a000000000000000000000000000000000000000000000000000000000815260040161234290613eb5565b60405180910390fd5b6001915050919050565b60008060026000848152602001908152602001600020604051806101600160405290816000820160009054906101000a900460ff16600281111561239c5761239b61334b565b5b60028111156123ae576123ad61334b565b5b81526020016000820160019054906101000a900460ff1660038111156123d7576123d661334b565b5b60038111156123e9576123e861334b565b5b81526020016000820160029054906101000a900473ffffffffffffffffffffffffffffffffffffffff1673ffffffffffffffffffffffffffffffffffffffff1673ffffffffffffffffffffffffffffffffffffffff1681526020016001820160009054906101000a900473ffffffffffffffffffffffffffffffffffffffff1673ffffffffffffffffffffffffffffffffffffffff1673ffffffffffffffffffffffffffffffffffffffff1681526020016002820154815260200160038201548152602001600482015481526020016005820154815260200160068201548152602001600782015481526020016008820160009054906101000a900473ffffffffffffffffffffffffffffffffffffffff1673ffffffffffffffffffffffffffffffffffffffff1673ffffffffffffffffffffffffffffffffffffffff16815250509050600060038111156125415761254061334b565b5b816020015160038111156125585761255761334b565b5b14612598576040517f08c379a000000000000000000000000000000000000000000000000000000000815260040161258f90613835565b60405180910390fd5b600060028111156125ac576125ab61334b565b5b816000015160028111156125c3576125c261334b565b5b1415612604576040517f08c379a00000000000000000000000000000000000000000000000000000000081526004016125fb90613f47565b60405180910390fd5b8060c00151341461264a576040517f08c379a000000000000000000000000000000000000000000000000000000000815260040161264190613fb3565b60405180910390fd5b6001915050919050565b600061266d836060015184608001518560c00151612fac565b905060006001808111156126845761268361334b565b5b8360018111156126975761269661334b565b5b146126a6578360c001516126ad565b8361012001515b90506000612710600460149054906101000a900461ffff1661ffff16836126d49190613fd3565b6126de919061405c565b90506000612710600460169054906101000a900461ffff1661ffff1685602001516127099190613fd3565b612713919061405c565b9050856040015173ffffffffffffffffffffffffffffffffffffffff166108fc828660200151858761274591906138fa565b61274f91906138fa565b61275991906138fa565b9081150290604051600060405180830381858888f19350505050158015612784573d6000803e3d6000fd5b50600460009054906101000a900473ffffffffffffffffffffffffffffffffffffffff1673ffffffffffffffffffffffffffffffffffffffff166108fc82846127cd91906136aa565b9081150290604051600060405180830381858888f193505050501580156127f8573d6000803e3d6000fd5b50836000015173ffffffffffffffffffffffffffffffffffffffff166108fc85602001519081150290604051600060405180830381858888f19350505050158015612847573d6000803e3d6000fd5b50505050505050565b60008060026000848152602001908152602001600020604051806101600160405290816000820160009054906101000a900460ff1660028111156128975761289661334b565b5b60028111156128a9576128a861334b565b5b81526020016000820160019054906101000a900460ff1660038111156128d2576128d161334b565b5b60038111156128e4576128e361334b565b5b81526020016000820160029054906101000a900473ffffffffffffffffffffffffffffffffffffffff1673ffffffffffffffffffffffffffffffffffffffff1673ffffffffffffffffffffffffffffffffffffffff1681526020016001820160009054906101000a900473ffffffffffffffffffffffffffffffffffffffff1673ffffffffffffffffffffffffffffffffffffffff1673ffffffffffffffffffffffffffffffffffffffff1681526020016002820154815260200160038201548152602001600482015481526020016005820154815260200160068201548152602001600782015481526020016008820160009054906101000a900473ffffffffffffffffffffffffffffffffffffffff1673ffffffffffffffffffffffffffffffffffffffff1673ffffffffffffffffffffffffffffffffffffffff1681525050905060006003811115612a3c57612a3b61334b565b5b81602001516003811115612a5357612a5261334b565b5b14612a93576040517f08c379a0000000000000000000000000000000000000000000000000000000008152600401612a8a90613835565b60405180910390fd5b60016002811115612aa757612aa661334b565b5b81600001516002811115612abe57612abd61334b565b5b1415612aff576040517f08c379a0000000000000000000000000000000000000000000000000000000008152600401612af6906140ff565b60405180910390fd5b3373ffffffffffffffffffffffffffffffffffffffff16816040015173ffffffffffffffffffffffffffffffffffffffff161415612b72576040517f08c379a0000000000000000000000000000000000000000000000000000000008152600401612b699061416b565b60405180910390fd5b60008161012001511415612bd8578060a001513410158015612b945750600034115b612bd3576040517f08c379a0000000000000000000000000000000000000000000000000000000008152600401612bca906141fd565b60405180910390fd5b612c3d565b6014816101200151612bea919061405c565b816101200151612bfa91906136aa565b341015612c3c576040517f08c379a0000000000000000000000000000000000000000000000000000000008152600401612c339061428f565b60405180910390fd5b5b6001915050919050565b60008060026000848152602001908152602001600020604051806101600160405290816000820160009054906101000a900460ff166002811115612c8e57612c8d61334b565b5b6002811115612ca057612c9f61334b565b5b81526020016000820160019054906101000a900460ff166003811115612cc957612cc861334b565b5b6003811115612cdb57612cda61334b565b5b81526020016000820160029054906101000a900473ffffffffffffffffffffffffffffffffffffffff1673ffffffffffffffffffffffffffffffffffffffff1673ffffffffffffffffffffffffffffffffffffffff1681526020016001820160009054906101000a900473ffffffffffffffffffffffffffffffffffffffff1673ffffffffffffffffffffffffffffffffffffffff1673ffffffffffffffffffffffffffffffffffffffff1681526020016002820154815260200160038201548152602001600482015481526020016005820154815260200160068201548152602001600782015481526020016008820160009054906101000a900473ffffffffffffffffffffffffffffffffffffffff1673ffffffffffffffffffffffffffffffffffffffff1673ffffffffffffffffffffffffffffffffffffffff16815250509050600380811115612e3257612e3161334b565b5b81602001516003811115612e4957612e4861334b565b5b14612e89576040517f08c379a0000000000000000000000000000000000000000000000000000000008152600401612e80906142fb565b60405180910390fd5b60016002811115612e9d57612e9c61334b565b5b81600001516002811115612eb457612eb361334b565b5b1415612ef5576040517f08c379a0000000000000000000000000000000000000000000000000000000008152600401612eec90614367565b60405180910390fd5b3373ffffffffffffffffffffffffffffffffffffffff16816040015173ffffffffffffffffffffffffffffffffffffffff161480612f6357503373ffffffffffffffffffffffffffffffffffffffff1681610140015173ffffffffffffffffffffffffffffffffffffffff16145b612fa2576040517f08c379a0000000000000000000000000000000000000000000000000000000008152600401612f9990613e49565b60405180910390fd5b6001915050919050565b612fb4613081565b6000808573ffffffffffffffffffffffffffffffffffffffff16632a55205a86866040518363ffffffff1660e01b8152600401612ff2929190614387565b6040805180830381865afa15801561300e573d6000803e3d6000fd5b505050506040513d601f19601f8201168201806040525081019061303291906143c5565b9150915081836000019073ffffffffffffffffffffffffffffffffffffffff16908173ffffffffffffffffffffffffffffffffffffffff16815250508083602001818152505050509392505050565b6040518060400160405280600073ffffffffffffffffffffffffffffffffffffffff168152602001600081525090565b600073ffffffffffffffffffffffffffffffffffffffff82169050919050565b60006130dc826130b1565b9050919050565b6130ec816130d1565b82525050565b6000819050919050565b613105816130f2565b82525050565b600060408201905061312060008301856130e3565b61312d60208301846130fc565b9392505050565b600080fd5b613142816130d1565b811461314d57600080fd5b50565b60008135905061315f81613139565b92915050565b61316e816130f2565b811461317957600080fd5b50565b60008135905061318b81613165565b92915050565b600080604083850312156131a8576131a7613134565b5b60006131b685828601613150565b92505060206131c78582860161317c565b9150509250929050565b6000819050919050565b6131e4816131d1565b82525050565b60006020820190506131ff60008301846131db565b92915050565b60006020828403121561321b5761321a613134565b5b600061322984828501613150565b91505092915050565b600060208201905061324760008301846130fc565b92915050565b613256816131d1565b811461326157600080fd5b50565b6000813590506132738161324d565b92915050565b60006020828403121561328f5761328e613134565b5b600061329d84828501613264565b91505092915050565b60006132b1826130d1565b9050919050565b6132c1816132a6565b81146132cc57600080fd5b50565b6000813590506132de816132b8565b92915050565b600080600080608085870312156132fe576132fd613134565b5b600061330c878288016132cf565b945050602061331d8782880161317c565b935050604061332e8782880161317c565b925050606061333f8782880161317c565b91505092959194509250565b7f4e487b7100000000000000000000000000000000000000000000000000000000600052602160045260246000fd5b6003811061338b5761338a61334b565b5b50565b600081905061339c8261337a565b919050565b60006133ac8261338e565b9050919050565b6133bc816133a1565b82525050565b600481106133d3576133d261334b565b5b50565b60008190506133e4826133c2565b919050565b60006133f4826133d6565b9050919050565b613404816133e9565b82525050565b6000819050919050565b600061342f61342a613425846130b1565b61340a565b6130b1565b9050919050565b600061344182613414565b9050919050565b600061345382613436565b9050919050565b61346381613448565b82525050565b60006101608201905061347f600083018e6133b3565b61348c602083018d6133fb565b613499604083018c6130e3565b6134a6606083018b61345a565b6134b3608083018a6130fc565b6134c060a08301896130fc565b6134cd60c08301886130fc565b6134da60e08301876130fc565b6134e86101008301866130fc565b6134f66101208301856130fc565b6135046101408301846130e3565b9c9b505050505050505050505050565b600060208201905061352960008301846130e3565b92915050565b600061ffff82169050919050565b6135468161352f565b82525050565b6000602082019050613561600083018461353d565b92915050565b6135708161352f565b811461357b57600080fd5b50565b60008135905061358d81613567565b92915050565b6000602082840312156135a9576135a8613134565b5b60006135b78482850161357e565b91505092915050565b600080604083850312156135d7576135d6613134565b5b60006135e5858286016132cf565b92505060206135f68582860161317c565b9150509250929050565b600080600080600060a0868803121561361c5761361b613134565b5b600061362a888289016132cf565b955050602061363b8882890161317c565b945050604061364c8882890161317c565b935050606061365d8882890161317c565b925050608061366e8882890161317c565b9150509295509295909350565b7f4e487b7100000000000000000000000000000000000000000000000000000000600052601160045260246000fd5b60006136b5826130f2565b91506136c0836130f2565b9250827fffffffffffffffffffffffffffffffffffffffffffffffffffffffffffffffff038211156136f5576136f461367b565b5b828201905092915050565b600082825260208201905092915050565b7f4f6e6c792061646d696e2063616e20646f207468697300000000000000000000600082015250565b6000613747601683613700565b915061375282613711565b602082019050919050565b600060208201905081810360008301526137768161373a565b9050919050565b7f696e7075742076616c7565206973206d6f7265207468616e2031303025000000600082015250565b60006137b3601d83613700565b91506137be8261377d565b602082019050919050565b600060208201905081810360008301526137e2816137a6565b9050919050565b7f54686973206f72646572206973206f766572206f722063616e63656c65640000600082015250565b600061381f601e83613700565b915061382a826137e9565b602082019050919050565b6000602082019050818103600083015261384e81613812565b9050919050565b600060408201905061386a60008301856130fc565b61387760208301846130e3565b9392505050565b600060608201905061389360008301866130e3565b6138a060208301856130e3565b6138ad60408301846130fc565b949350505050565b60006080820190506138ca60008301876130fc565b6138d760208301866130e3565b6138e460408301856130e3565b6138f160608301846130fc565b95945050505050565b6000613905826130f2565b9150613910836130f2565b9250828210156139235761392261367b565b5b828203905092915050565b600060608201905061394360008301866130fc565b61395060208301856130e3565b61395d60408301846130fc565b949350505050565b7f54686973206f7264657220646f6573206e6f7420657869737473000000000000600082015250565b600061399b601a83613700565b91506139a682613965565b602082019050919050565b600060208201905081810360008301526139ca8161398e565b9050919050565b7f4475726174696f6e206d757374206265206d6f7265207468616e207a65726f00600082015250565b6000613a07601f83613700565b9150613a12826139d1565b602082019050919050565b60006020820190508181036000830152613a36816139fa565b9050919050565b600081519050613a4c81613139565b92915050565b600060208284031215613a6857613a67613134565b5b6000613a7684828501613a3d565b91505092915050565b6000604082019050613a9460008301856130e3565b613aa160208301846130e3565b9392505050565b60008115159050919050565b613abd81613aa8565b8114613ac857600080fd5b50565b600081519050613ada81613ab4565b92915050565b600060208284031215613af657613af5613134565b5b6000613b0484828501613acb565b91505092915050565b7f44455820436f6e7472616374206d75737420626520617070726f76656420746f60008201527f206d616b65207472616e73616374696f6e2077697468207468697320746f6b6560208201527f6e20494400000000000000000000000000000000000000000000000000000000604082015250565b6000613b8f604483613700565b9150613b9a82613b0d565b606082019050919050565b60006020820190508181036000830152613bbe81613b82565b9050919050565b7f546865726520697320616c726561647920616e206f7264657220666f7220746860008201527f697320746f6b656e204944000000000000000000000000000000000000000000602082015250565b6000613c21602b83613700565b9150613c2c82613bc5565b604082019050919050565b60006020820190508181036000830152613c5081613c14565b9050919050565b7f5072696365206d757374206265206d6f7265207468616e203000000000000000600082015250565b6000613c8d601983613700565b9150613c9882613c57565b602082019050919050565b60006020820190508181036000830152613cbc81613c80565b9050919050565b6000819050919050565b613cde613cd9826130f2565b613cc3565b82525050565b60008160601b9050919050565b6000613cfc82613ce4565b9050919050565b6000613d0e82613cf1565b9050919050565b613d26613d2182613448565b613d03565b82525050565b613d3d613d38826130d1565b613d03565b82525050565b6000613d4f8287613ccd565b602082019150613d5f8286613d15565b601482019150613d6f8285613ccd565b602082019150613d7f8284613d2c565b60148201915081905095945050505050565b7f54686973206f72646572206973206e6f74206163746976650000000000000000600082015250565b6000613dc7601883613700565b9150613dd282613d91565b602082019050919050565b60006020820190508181036000830152613df681613dba565b9050919050565b7f4163636573732064656e69656400000000000000000000000000000000000000600082015250565b6000613e33600d83613700565b9150613e3e82613dfd565b602082019050919050565b60006020820190508181036000830152613e6281613e26565b9050919050565b7f42696464696e6720657869737400000000000000000000000000000000000000600082015250565b6000613e9f600d83613700565b9150613eaa82613e69565b602082019050919050565b60006020820190508181036000830152613ece81613e92565b9050919050565b7f4974277320616e2061756374696f6e2c20796f752063616e277420276275792060008201527f6974206e6f772700000000000000000000000000000000000000000000000000602082015250565b6000613f31602783613700565b9150613f3c82613ed5565b604082019050919050565b60006020820190508181036000830152613f6081613f24565b9050919050565b7f57726f6e6720707269636520666f722027427579206974206e6f772127000000600082015250565b6000613f9d601d83613700565b9150613fa882613f67565b602082019050919050565b60006020820190508181036000830152613fcc81613f90565b9050919050565b6000613fde826130f2565b9150613fe9836130f2565b9250817fffffffffffffffffffffffffffffffffffffffffffffffffffffffffffffffff04831182151516156140225761402161367b565b5b828202905092915050565b7f4e487b7100000000000000000000000000000000000000000000000000000000600052601260045260246000fd5b6000614067826130f2565b9150614072836130f2565b9250826140825761408161402d565b5b828204905092915050565b7f43616e206e6f742062696420746f20746869732027666978656420707269636560008201527f27206f7264657200000000000000000000000000000000000000000000000000602082015250565b60006140e9602783613700565b91506140f48261408d565b604082019050919050565b60006020820190508181036000830152614118816140dc565b9050919050565b7f43616e206e6f742062696420746f20796f7572206f7264657200000000000000600082015250565b6000614155601983613700565b91506141608261411f565b602082019050919050565b6000602082019050818103600083015261418481614148565b9050919050565b7f50726963652063616e2774206265206c657373207468616e202773746172742060008201527f7072696365270000000000000000000000000000000000000000000000000000602082015250565b60006141e7602683613700565b91506141f28261418b565b604082019050919050565b60006020820190508181036000830152614216816141da565b9050919050565b7f507269636520697320746f6f206c6f7720286d696e202b35252072657175697260008201527f6564290000000000000000000000000000000000000000000000000000000000602082015250565b6000614279602383613700565b91506142848261421d565b604082019050919050565b600060208201905081810360008301526142a88161426c565b9050919050565b7f54686973206f72646572206973206e6f742066696e6973682079657400000000600082015250565b60006142e5601c83613700565b91506142f0826142af565b602082019050919050565b60006020820190508181036000830152614314816142d8565b9050919050565b7f54686973206f72646572206973206e6f7420616e2061756374696f6e00000000600082015250565b6000614351601c83613700565b915061435c8261431b565b602082019050919050565b6000602082019050818103600083015261438081614344565b9050919050565b600060408201905061439c60008301856130fc565b6143a960208301846130fc565b9392505050565b6000815190506143bf81613165565b92915050565b600080604083850312156143dc576143db613134565b5b60006143ea85828601613a3d565b92505060206143fb858286016143b0565b915050925092905056fea26469706673582212207a0386ccb355031c1bfec0a4f8f731a5842f87b5e32277ce8bdc893e635c1e4a64736f6c634300080a0033",
  "immutableReferences": {},
  "source": "// SPDX-License-Identifier: MIT\npragma solidity ^0.8.0;\n\nimport './DEX_Base.sol';\nimport './DEX_Admin.sol';\n\ncontract DEX is DEX_Base, DEX_Admin{\n\n  constructor(uint16 _feePercent, uint16 _royaltyFeePercent) DEX_Internal(_feePercent, _royaltyFeePercent) {\n  }\n\n  function makeAuctionOrder(IERC721 _token, uint256 _id, uint256 _startPrice, uint256 duration) external {\n    uint256 _endTime = block.timestamp + duration;\n    _makeOrder(OrderType.AUCTION, _token, _id, _startPrice, 0, _endTime);\n  } \n\n  function makeFixedPriceOrder(IERC721 _token, uint256 _id, uint256 _fixedPrice, uint256 duration) external {\n    uint256 _endTime = block.timestamp + duration;\n    _makeOrder(OrderType.FIXED, _token, _id, 0, _fixedPrice, _endTime);\n  } \n\n  function makeMixedOrder(IERC721 _token, uint256 _id, uint256 _startPrice, uint256 _fixedPrice, uint256 duration) external {\n    uint256 _endTime = block.timestamp + duration;\n    _makeOrder(OrderType.MIXED, _token, _id, _startPrice, _fixedPrice, _endTime);\n  }\n\n  function getCurrentPrice(bytes32 _order) public view returns (uint256) {\n    return _getCurrentPrice(_order);\n  }\n\n  function sellerTotalOrder(address _seller) external view returns (uint256) {\n    return orderIdBySeller[_seller].length;\n  }\n\n  function bid(bytes32 _order) payable external {\n    _bid(_order);\n  }\n\n  function buyItNow(bytes32 _order) payable external {\n    _buyItNow(_order);\n  }\n\n  function claim(bytes32 _order) external {\n    _claim(_order);\n  }\n\n  function cancelOrder(bytes32 _order) external {\n    _cancelOrder(_order);\n  }\n}",
  "sourcePath": "/home/apifex/DevProjects/Solidity/DEX/contracts/DEX.sol",
  "compiler": {
    "name": "solc",
    "version": "0.8.10+commit.fc410830.Emscripten.clang"
  },
  "schemaVersion": "3.4.4",
  "updatedAt": "2022-02-09T21:48:38.598Z",
  "networkType": "ethereum",
  "devdoc": {
    "kind": "dev",
    "methods": {},
    "version": 1
  },
  "userdoc": {
    "kind": "user",
    "methods": {},
    "version": 1
  }
}